{
  "_format": "hh-sol-artifact-1",
  "contractName": "ToDo",
  "sourceName": "contracts/ToDo.sol",
  "abi": [
    {
      "inputs": [],
      "stateMutability": "nonpayable",
      "type": "constructor"
    },
    {
      "inputs": [
        {
          "internalType": "string",
          "name": "_taskName",
          "type": "string"
        },
        {
          "internalType": "string",
          "name": "_description",
          "type": "string"
        },
        {
          "internalType": "uint256",
          "name": "_startedTime",
          "type": "uint256"
        },
        {
          "internalType": "uint256",
          "name": "_finishedTime",
          "type": "uint256"
        }
      ],
      "name": "addTask",
      "outputs": [],
      "stateMutability": "nonpayable",
      "type": "function"
    },
    {
      "inputs": [],
      "name": "getAllTasks",
      "outputs": [
        {
          "components": [
            {
              "internalType": "string",
              "name": "taskName",
              "type": "string"
            },
            {
              "internalType": "string",
              "name": "description",
              "type": "string"
            },
            {
              "internalType": "uint256",
              "name": "startedTime",
              "type": "uint256"
            },
            {
              "internalType": "uint256",
              "name": "finishedTime",
              "type": "uint256"
            },
            {
              "internalType": "enum ToDo.TaskStatus",
              "name": "status",
              "type": "uint8"
            }
          ],
          "internalType": "struct ToDo.Task[]",
          "name": "",
          "type": "tuple[]"
        }
      ],
      "stateMutability": "view",
      "type": "function"
    },
    {
      "inputs": [
        {
          "internalType": "uint256",
          "name": "index",
          "type": "uint256"
        }
      ],
      "name": "getMyTask",
      "outputs": [
        {
          "internalType": "string",
          "name": "",
          "type": "string"
        },
        {
          "internalType": "string",
          "name": "",
          "type": "string"
        },
        {
          "internalType": "uint256",
          "name": "",
          "type": "uint256"
        },
        {
          "internalType": "uint256",
          "name": "",
          "type": "uint256"
        },
        {
          "internalType": "enum ToDo.TaskStatus",
          "name": "",
          "type": "uint8"
        }
      ],
      "stateMutability": "view",
      "type": "function"
    },
    {
      "inputs": [],
      "name": "getMyTasksCount",
      "outputs": [
        {
          "internalType": "uint256",
          "name": "",
          "type": "uint256"
        }
      ],
      "stateMutability": "view",
      "type": "function"
    },
    {
      "inputs": [
        {
          "internalType": "uint256",
          "name": "index",
          "type": "uint256"
        }
      ],
      "name": "maskAsFinished",
      "outputs": [],
      "stateMutability": "nonpayable",
      "type": "function"
    },
    {
      "inputs": [],
      "name": "owner",
      "outputs": [
        {
          "internalType": "address",
          "name": "",
          "type": "address"
        }
      ],
      "stateMutability": "view",
      "type": "function"
    }
  ],
  "bytecode": "0x6080604052348015600f57600080fd5b50336000806101000a81548173ffffffffffffffffffffffffffffffffffffffff021916908373ffffffffffffffffffffffffffffffffffffffff1602179055506112318061005f6000396000f3fe608060405234801561001057600080fd5b50600436106100625760003560e01c806322a01ba514610067578063779900b41461009b5780638da5cb5b146100b9578063ad2e9d7f146100d7578063b5525b3f146100f3578063be1afc8414610111575b600080fd5b610081600480360381019061007c91906108ca565b61012d565b604051610092959493929190610a0d565b60405180910390f35b6100a36103c9565b6040516100b09190610c15565b60405180910390f35b6100c16105d8565b6040516100ce9190610c78565b60405180910390f35b6100f160048036038101906100ec91906108ca565b6105fc565b005b6100fb610716565b6040516101089190610c93565b60405180910390f35b61012b60048036038101906101269190610de3565b610760565b005b606080600080600085600160003373ffffffffffffffffffffffffffffffffffffffff1673ffffffffffffffffffffffffffffffffffffffff1681526020019081526020016000208054905081106101ba576040517f08c379a00000000000000000000000000000000000000000000000000000000081526004016101b190610ece565b60405180910390fd5b6000600160003373ffffffffffffffffffffffffffffffffffffffff1673ffffffffffffffffffffffffffffffffffffffff168152602001908152602001600020888154811061020d5761020c610eee565b5b90600052602060002090600502016040518060a001604052908160008201805461023690610f4c565b80601f016020809104026020016040519081016040528092919081815260200182805461026290610f4c565b80156102af5780601f10610284576101008083540402835291602001916102af565b820191906000526020600020905b81548152906001019060200180831161029257829003601f168201915b505050505081526020016001820180546102c890610f4c565b80601f01602080910402602001604051908101604052809291908181526020018280546102f490610f4c565b80156103415780601f1061031657610100808354040283529160200191610341565b820191906000526020600020905b81548152906001019060200180831161032457829003601f168201915b5050505050815260200160028201548152602001600382015481526020016004820160009054906101000a900460ff16600181111561038357610382610996565b5b600181111561039557610394610996565b5b8152505090508060000151816020015182604001518360600151846080015196509650965096509650505091939590929450565b6060600160003373ffffffffffffffffffffffffffffffffffffffff1673ffffffffffffffffffffffffffffffffffffffff168152602001908152602001600020805480602002602001604051908101604052809291908181526020016000905b828210156105cf57838290600052602060002090600502016040518060a001604052908160008201805461045d90610f4c565b80601f016020809104026020016040519081016040528092919081815260200182805461048990610f4c565b80156104d65780601f106104ab576101008083540402835291602001916104d6565b820191906000526020600020905b8154815290600101906020018083116104b957829003601f168201915b505050505081526020016001820180546104ef90610f4c565b80601f016020809104026020016040519081016040528092919081815260200182805461051b90610f4c565b80156105685780601f1061053d57610100808354040283529160200191610568565b820191906000526020600020905b81548152906001019060200180831161054b57829003601f168201915b5050505050815260200160028201548152602001600382015481526020016004820160009054906101000a900460ff1660018111156105aa576105a9610996565b5b60018111156105bc576105bb610996565b5b815250508152602001906001019061042a565b50505050905090565b60008054906101000a900473ffffffffffffffffffffffffffffffffffffffff1681565b80600160003373ffffffffffffffffffffffffffffffffffffffff1673ffffffffffffffffffffffffffffffffffffffff168152602001908152602001600020805490508110610681576040517f08c379a000000000000000000000000000000000000000000000000000000000815260040161067890610ece565b60405180910390fd5b6000600160003373ffffffffffffffffffffffffffffffffffffffff1673ffffffffffffffffffffffffffffffffffffffff16815260200190815260200160002083815481106106d4576106d3610eee565b5b9060005260206000209060050201905060018160040160006101000a81548160ff0219169083600181111561070c5761070b610996565b5b0217905550505050565b6000600160003373ffffffffffffffffffffffffffffffffffffffff1673ffffffffffffffffffffffffffffffffffffffff16815260200190815260200160002080549050905090565b60006040518060a001604052808681526020018581526020018481526020018381526020016000600181111561079957610798610996565b5b8152509050600160003373ffffffffffffffffffffffffffffffffffffffff1673ffffffffffffffffffffffffffffffffffffffff168152602001908152602001600020819080600181540180825580915050600190039060005260206000209060050201600090919091909150600082015181600001908161081c9190611129565b5060208201518160010190816108329190611129565b50604082015181600201556060820151816003015560808201518160040160006101000a81548160ff0219169083600181111561087257610871610996565b5b021790555050505050505050565b6000604051905090565b600080fd5b600080fd5b6000819050919050565b6108a781610894565b81146108b257600080fd5b50565b6000813590506108c48161089e565b92915050565b6000602082840312156108e0576108df61088a565b5b60006108ee848285016108b5565b91505092915050565b600081519050919050565b600082825260208201905092915050565b60005b83811015610931578082015181840152602081019050610916565b60008484015250505050565b6000601f19601f8301169050919050565b6000610959826108f7565b6109638185610902565b9350610973818560208601610913565b61097c8161093d565b840191505092915050565b61099081610894565b82525050565b7f4e487b7100000000000000000000000000000000000000000000000000000000600052602160045260246000fd5b600281106109d6576109d5610996565b5b50565b60008190506109e7826109c5565b919050565b60006109f7826109d9565b9050919050565b610a07816109ec565b82525050565b600060a0820190508181036000830152610a27818861094e565b90508181036020830152610a3b818761094e565b9050610a4a6040830186610987565b610a576060830185610987565b610a6460808301846109fe565b9695505050505050565b600081519050919050565b600082825260208201905092915050565b6000819050602082019050919050565b600082825260208201905092915050565b6000610ab6826108f7565b610ac08185610a9a565b9350610ad0818560208601610913565b610ad98161093d565b840191505092915050565b610aed81610894565b82525050565b610afc816109ec565b82525050565b600060a0830160008301518482036000860152610b1f8282610aab565b91505060208301518482036020860152610b398282610aab565b9150506040830151610b4e6040860182610ae4565b506060830151610b616060860182610ae4565b506080830151610b746080860182610af3565b508091505092915050565b6000610b8b8383610b02565b905092915050565b6000602082019050919050565b6000610bab82610a6e565b610bb58185610a79565b935083602082028501610bc785610a8a565b8060005b85811015610c035784840389528151610be48582610b7f565b9450610bef83610b93565b925060208a01995050600181019050610bcb565b50829750879550505050505092915050565b60006020820190508181036000830152610c2f8184610ba0565b905092915050565b600073ffffffffffffffffffffffffffffffffffffffff82169050919050565b6000610c6282610c37565b9050919050565b610c7281610c57565b82525050565b6000602082019050610c8d6000830184610c69565b92915050565b6000602082019050610ca86000830184610987565b92915050565b600080fd5b600080fd5b7f4e487b7100000000000000000000000000000000000000000000000000000000600052604160045260246000fd5b610cf08261093d565b810181811067ffffffffffffffff82111715610d0f57610d0e610cb8565b5b80604052505050565b6000610d22610880565b9050610d2e8282610ce7565b919050565b600067ffffffffffffffff821115610d4e57610d4d610cb8565b5b610d578261093d565b9050602081019050919050565b82818337600083830152505050565b6000610d86610d8184610d33565b610d18565b905082815260208101848484011115610da257610da1610cb3565b5b610dad848285610d64565b509392505050565b600082601f830112610dca57610dc9610cae565b5b8135610dda848260208601610d73565b91505092915050565b60008060008060808587031215610dfd57610dfc61088a565b5b600085013567ffffffffffffffff811115610e1b57610e1a61088f565b5b610e2787828801610db5565b945050602085013567ffffffffffffffff811115610e4857610e4761088f565b5b610e5487828801610db5565b9350506040610e65878288016108b5565b9250506060610e76878288016108b5565b91505092959194509250565b7f4e6f207461736b20617661696c61626c65000000000000000000000000000000600082015250565b6000610eb8601183610902565b9150610ec382610e82565b602082019050919050565b60006020820190508181036000830152610ee781610eab565b9050919050565b7f4e487b7100000000000000000000000000000000000000000000000000000000600052603260045260246000fd5b7f4e487b7100000000000000000000000000000000000000000000000000000000600052602260045260246000fd5b60006002820490506001821680610f6457607f821691505b602082108103610f7757610f76610f1d565b5b50919050565b60008190508160005260206000209050919050565b60006020601f8301049050919050565b600082821b905092915050565b600060088302610fdf7fffffffffffffffffffffffffffffffffffffffffffffffffffffffffffffffff82610fa2565b610fe98683610fa2565b95508019841693508086168417925050509392505050565b6000819050919050565b600061102661102161101c84610894565b611001565b610894565b9050919050565b6000819050919050565b6110408361100b565b61105461104c8261102d565b848454610faf565b825550505050565b600090565b61106961105c565b611074818484611037565b505050565b5b818110156110985761108d600082611061565b60018101905061107a565b5050565b601f8211156110dd576110ae81610f7d565b6110b784610f92565b810160208510156110c6578190505b6110da6110d285610f92565b830182611079565b50505b505050565b600082821c905092915050565b6000611100600019846008026110e2565b1980831691505092915050565b600061111983836110ef565b9150826002028217905092915050565b611132826108f7565b67ffffffffffffffff81111561114b5761114a610cb8565b5b6111558254610f4c565b61116082828561109c565b600060209050601f8311600181146111935760008415611181578287015190505b61118b858261110d565b8655506111f3565b601f1984166111a186610f7d565b60005b828110156111c9578489015182556001820191506020850194506020810190506111a4565b868310156111e657848901516111e2601f8916826110ef565b8355505b6001600288020188555050505b50505050505056fea26469706673582212206532c3f199ef611f7ca20f14fc0513c32683f433b1aaf7b40f9a4beb9572f78a64736f6c634300081c0033",
  "linkReferences": {},
  "deployedLinkReferences": {}
}